S00C00006C6162312E73726563B8
S11300000C942A000C9434000C9434000C943400A6
S11300100C9434000C9434000C9434000C9434008C
S11300200C9434000C9434000C9434000C9434007C
S11300300C9434000C9434000C9434000C9434006C
S11300400C9434000C9434000C9434000C9434005C
S11300500C94340011241FBECFE5D8E0DEBFCDBF21
S11300600E9436000C9471000C9400008FEF8BBB3F
S113007020E030E016C04AB381E090E0022E02C0D6
S1130080880F991F0A94E2F7842B8ABB4FE788E311
S113009091E0415080409040E1F700C000002F5FA4
S11300A03F4F283031053CF327E030E017C04AB316
S11300B081E090E0022E02C0880F991F0A94E2F7B3
S11300C0809584238ABB4FE788E391E041508040C8
S11300D09040E1F700C000002150310933233CF780
S10900E0C7CFF894FFCF26
S9030000FC
