:020000040800F2
:1000000000280020090500085905000859050008C6
:1000100059050008590500085905000800000000AE
:10002000000000000000000000000000590500086A
:10003000590500080000000059050008590500088E
:100040005905000859050008590500085905000818
:100050005905000859050008590500085905000808
:1000600059050008590500085905000859050008F8
:1000700059050008590500085905000859050008E8
:1000800059050008590500085905000859050008D8
:1000900059050008590500085905000859050008C8
:1000A00059050008590500085905000859050008B8
:1000B00059050008590500085905000859050008A8
:1000C0005905000859050008590500085905000898
:1000D0005905000859050008590500085905000888
:1000E00059050008590500080000000059050008DE
:1000F0005905000859050008590500085905000868
:100100005905000859050008590500085905000857
:100110005905000859050008590500085905000847
:100120005905000859050008590500085905000837
:1001300010B5054C237833B9044B13B10448AFF321
:1001400000800123237010BD040000200000000087
:10015000A405000808B5034B1BB103490348AFF3DE
:10016000008008BD0000000008000020A405000871
:1001700080B500AF00F036F900BF80BD80B500AF9C
:10018000002000F011F900BF80BD80B500AF012054
:1001900000F00AF900BF80BD80B500AF094B1B68B5
:1001A000002B04D1FFF7F1FF074B084A1A60054BFB
:1001B0001B68012B04D1FFF7E1FF034B044A1A60CF
:1001C00000BF80BD2C00002034000020D5010008B5
:1001D000F901000880B400AF044B01221A70044BEF
:1001E000044A1A6000BFBD4680BC70474000002032
:1001F000340000209901000880B400AF044B0222B3
:100200001A70044B044A1A6000BFBD4680BC704798
:1002100040000020340000209901000880B500AFA4
:1002200000F0E0F800BF80BD80B500AF0A4B0022AF
:100230001A7000F0ADF80246084B1A60074B1B68B5
:10024000184600F037F9064B064A1A60064B074A73
:100250001A6000BF80BD00BF4300002020000020C6
:1002600024000020A0860100380000207102000850
:1002700080B500AF074B01221A70074B1B68184668
:1002800000F076F8044B00221A60044B044A1A600E
:1002900000BF80BD43000020240000203800002063
:1002A0002902000880B400AF034B044A1A6000BF63
:1002B000BD4680BC704700BF3C000020F102000832
:1002C00080B500AF064B00221A70064B00221A6060
:1002D000FFF75BFF044B054A1A6000BF80BD00BFFB
:1002E000410000202C0000203C000020C10200083A
:1002F00080B500AF094B01221A70094B01221A6028
:10030000FFF73CFF074B4EF660221A60064B074A88
:100310001A60054B1B68984700BF80BD4100002054
:100320002C000020280000203C00002031030008A1
:1003300080B500AF0A4B02221A700A4B1B681846A0
:1003400000F016F8074B00221A60FFF71EFF064B5D
:10035000064A1A60044B1B68984700BF80BD00BF67
:1003600041000020280000203C000020C1020008BD
:1003700080B483B000AF786002E07B68013B7B60B3
:100380007B68002BF9D100BF0C37BD4680BC70479D
:1003900080B400AF034B1B68DBB21846BD4680BC7F
:1003A000704700BF0808014080B483B000AF786098
:1003B0007B68012B06D10A4B1B68094A43F40053A2
:1003C000136008E07B68002B05D1054B1B68044ACD
:1003D00023F40053136000BF0C37BD4680BC704748
:1003E0000C08014080B400AF0F4B1B680E4A43F06D
:1003F000040313600D4B1B680C4A23F47003136055
:100400000A4B0A4A1B681360094B1B68084A23F40D
:1004100070031360064B1B68054A43F022331360D8
:1004200000BFBD4680BC7047181002400008014064
:100430000408014080B500AFFFF79AFEFFF7EEFE1B
:10044000074B084A1A60084B084A1A60084B094AC9
:100450001A60FFF79AFE084B084A1A6000BF80BD79
:100460003C000020C10200083800002029020008DA
:1004700044000020D1040008340000209901000845
:1004800080B500AFFFF7D6FF064B1B689847064BB9
:100490001B689847054B1B689847054B1B68984796
:1004A000F2E700BF38000020440000203C0000209C
:1004B0003400002080B483B000AF7860034A7B68CA
:1004C000136000BF0C37BD4680BC70473000002071
:1004D00080B500AF074B00221A70074B1A68074B14
:1004E0001B689A4201DDFFF7DDFE054B054A1A60E5
:1004F00000BF80BD4200002030000020000000202E
:1005000044000020D10400080D488546AFF3008068
:100510000C480D490D4A002302E0D458C45004335E
:10052000C4188C42F9D30A4A0A4C002301E0136034
:100530000432A242FBD300F011F8FFF7A1FFFEE75F
:10054000002800200000002004000020C40500084E
:100550000400002048000020FEE7000070B50025E0
:100560000C4E0D4CA41BA410A54209D100F01AF8A2
:1005700000250A4E0A4CA41BA410A54205D170BD4B
:1005800056F8253098470135EEE756F8253098475C
:100590000135F2E7BC050008BC050008BC050008F1
:1005A000C0050008F8B500BFF8BC08BC9E467047FF
:0C05B000F8B500BFF8BC08BC9E467047C0
:0405BC0055010008DD
:0405C00031010008FD
:0405C400140000001F
:0400000508000509E1
:00000001FF
