:100000000C942A000C943F000C943F000C943F0089
:100010000C943F000C943F000C943F000C943F0064
:100020000C943F000C943F000C943F000C943F0054
:100030000C943F000C943F000C943F000C943F0044
:100040000C943F000C943F000C943F000C943F0034
:100050000C943F0011241FBECFE5D8E0DEBFCDBF1A
:1000600010E0A0E6B0E0E4EEF1E002C005900D92F1
:10007000A037B107D9F70E94DF000C94F0000C9470
:10008000000081B3807F81BB81B38F6081BB8FEF24
:1000900082BB089532B3E0E6F0E081E090E0BC017D
:1000A000008002C0660F771F0A94E2F72281548114
:1000B0004681262B252B242B232B22BB22B3008009
:1000C00002C0880F991F0A94E2F78095822382BBB1
:1000D00080B32091680090E0022E02C0959587952C
:1000E0000A94E2F780FD0AC080B390E0022E02C0BD
:1000F000959587950A94E2F780FFF6CF87E30895F8
:1001000088B38E7F88BB2FE986E891E0215080403C
:100110009040E1F700C0000088B3816088BB08957B
:1001200017BA88B3846088BB88B388BB0E948000FC
:100130008FEF8ABB88B38B7F88BB0895CF93C82F7E
:100140000E949000CBBB88B38B7F88BB0E9480004D
:10015000CF91089581E00E949E00089583E294EF7C
:100160000197F1F700C000000E94900087B38E60F5
:1001700087BB88B3877F88BB8FEF8ABB0E94AA00AA
:1001800088E30E949E0086E00E949E0080E80E9414
:100190009E008FE00E949E000895CF93C82F0E947A
:1001A000900088B3816088BBCBBB88B38B7F88BB52
:1001B00088B3816088BB0E948000CF9108950E941F
:1001C000AE000E9441000E944A00813219F08E3434
:1001D000D1F303C00E94AA00F6CF0E94CD00F3CF56
:0401E000F894FFCFC1
:1001E40000000100020003000000010002000300FF
:00000001FF
