:100000000C942A000C9434000C9434000C943400AA
:100010000C9434000C9434000C9434000C94340090
:100020000C9434000C9434000C9434000C94340080
:100030000C9434000C9434000C9434000C94340070
:100040000C9434000C9434000C9434000C94340060
:100050000C94340011241FBECFE5D8E0DEBFCDBF25
:100060000E9436000C9455000C9400008FEF8BBB5F
:1000700014BA85BB80E090E09899FECF4AB321E0A6
:1000800030E0082E02C0220F331F0A94E2F7242B1F
:100090002ABB989BFECF019687709078992364F7CE
:0E00A0000197886F9F6F0196E7CFF894FFCF0E
:00000001FF
